{
  "_format": "hh-sol-artifact-1",
  "contractName": "USDCPool",
  "sourceName": "contracts/USDCPool.sol",
  "abi": [
    {
      "anonymous": false,
      "inputs": [
        {
          "indexed": true,
          "internalType": "address",
          "name": "owner",
          "type": "address"
        },
        {
          "indexed": true,
          "internalType": "address",
          "name": "spender",
          "type": "address"
        },
        {
          "indexed": false,
          "internalType": "uint256",
          "name": "value",
          "type": "uint256"
        }
      ],
      "name": "Approval",
      "type": "event"
    },
    {
      "anonymous": false,
      "inputs": [
        {
          "indexed": true,
          "internalType": "address",
          "name": "previousOwner",
          "type": "address"
        },
        {
          "indexed": true,
          "internalType": "address",
          "name": "newOwner",
          "type": "address"
        }
      ],
      "name": "OwnershipTransferred",
      "type": "event"
    },
    {
      "anonymous": false,
      "inputs": [
        {
          "indexed": true,
          "internalType": "address",
          "name": "account",
          "type": "address"
        },
        {
          "indexed": false,
          "internalType": "uint256",
          "name": "amount",
          "type": "uint256"
        },
        {
          "indexed": false,
          "internalType": "uint256",
          "name": "writeAmount",
          "type": "uint256"
        }
      ],
      "name": "Provide",
      "type": "event"
    },
    {
      "anonymous": false,
      "inputs": [
        {
          "indexed": true,
          "internalType": "address",
          "name": "from",
          "type": "address"
        },
        {
          "indexed": true,
          "internalType": "address",
          "name": "to",
          "type": "address"
        },
        {
          "indexed": false,
          "internalType": "uint256",
          "name": "value",
          "type": "uint256"
        }
      ],
      "name": "Transfer",
      "type": "event"
    },
    {
      "anonymous": false,
      "inputs": [
        {
          "indexed": true,
          "internalType": "address",
          "name": "account",
          "type": "address"
        },
        {
          "indexed": false,
          "internalType": "uint256",
          "name": "amount",
          "type": "uint256"
        },
        {
          "indexed": false,
          "internalType": "uint256",
          "name": "writeAmount",
          "type": "uint256"
        }
      ],
      "name": "Withdraw",
      "type": "event"
    },
    {
      "inputs": [
        {
          "internalType": "address",
          "name": "owner",
          "type": "address"
        },
        {
          "internalType": "address",
          "name": "spender",
          "type": "address"
        }
      ],
      "name": "allowance",
      "outputs": [
        {
          "internalType": "uint256",
          "name": "",
          "type": "uint256"
        }
      ],
      "stateMutability": "view",
      "type": "function"
    },
    {
      "inputs": [
        {
          "internalType": "address",
          "name": "spender",
          "type": "address"
        },
        {
          "internalType": "uint256",
          "name": "amount",
          "type": "uint256"
        }
      ],
      "name": "approve",
      "outputs": [
        {
          "internalType": "bool",
          "name": "",
          "type": "bool"
        }
      ],
      "stateMutability": "nonpayable",
      "type": "function"
    },
    {
      "inputs": [],
      "name": "availableBalance",
      "outputs": [
        {
          "internalType": "uint256",
          "name": "balance",
          "type": "uint256"
        }
      ],
      "stateMutability": "view",
      "type": "function"
    },
    {
      "inputs": [
        {
          "internalType": "address",
          "name": "account",
          "type": "address"
        }
      ],
      "name": "balanceOf",
      "outputs": [
        {
          "internalType": "uint256",
          "name": "",
          "type": "uint256"
        }
      ],
      "stateMutability": "view",
      "type": "function"
    },
    {
      "inputs": [],
      "name": "decimals",
      "outputs": [
        {
          "internalType": "uint8",
          "name": "",
          "type": "uint8"
        }
      ],
      "stateMutability": "view",
      "type": "function"
    },
    {
      "inputs": [
        {
          "internalType": "address",
          "name": "spender",
          "type": "address"
        },
        {
          "internalType": "uint256",
          "name": "subtractedValue",
          "type": "uint256"
        }
      ],
      "name": "decreaseAllowance",
      "outputs": [
        {
          "internalType": "bool",
          "name": "",
          "type": "bool"
        }
      ],
      "stateMutability": "nonpayable",
      "type": "function"
    },
    {
      "inputs": [
        {
          "internalType": "address",
          "name": "spender",
          "type": "address"
        },
        {
          "internalType": "uint256",
          "name": "addedValue",
          "type": "uint256"
        }
      ],
      "name": "increaseAllowance",
      "outputs": [
        {
          "internalType": "bool",
          "name": "",
          "type": "bool"
        }
      ],
      "stateMutability": "nonpayable",
      "type": "function"
    },
    {
      "inputs": [
        {
          "internalType": "uint256",
          "name": "amount",
          "type": "uint256"
        }
      ],
      "name": "lock",
      "outputs": [],
      "stateMutability": "nonpayable",
      "type": "function"
    },
    {
      "inputs": [],
      "name": "lockedAmount",
      "outputs": [
        {
          "internalType": "uint256",
          "name": "",
          "type": "uint256"
        }
      ],
      "stateMutability": "view",
      "type": "function"
    },
    {
      "inputs": [],
      "name": "lockedPremium",
      "outputs": [
        {
          "internalType": "uint256",
          "name": "",
          "type": "uint256"
        }
      ],
      "stateMutability": "view",
      "type": "function"
    },
    {
      "inputs": [],
      "name": "lockupPeriod",
      "outputs": [
        {
          "internalType": "uint256",
          "name": "",
          "type": "uint256"
        }
      ],
      "stateMutability": "view",
      "type": "function"
    },
    {
      "inputs": [],
      "name": "name",
      "outputs": [
        {
          "internalType": "string",
          "name": "",
          "type": "string"
        }
      ],
      "stateMutability": "view",
      "type": "function"
    },
    {
      "inputs": [],
      "name": "owner",
      "outputs": [
        {
          "internalType": "address",
          "name": "",
          "type": "address"
        }
      ],
      "stateMutability": "view",
      "type": "function"
    },
    {
      "inputs": [
        {
          "internalType": "uint256",
          "name": "minMint",
          "type": "uint256"
        },
        {
          "internalType": "uint256",
          "name": "total_USDC_value",
          "type": "uint256"
        }
      ],
      "name": "provide",
      "outputs": [
        {
          "internalType": "uint256",
          "name": "mint",
          "type": "uint256"
        }
      ],
      "stateMutability": "payable",
      "type": "function"
    },
    {
      "inputs": [],
      "name": "renounceOwnership",
      "outputs": [],
      "stateMutability": "nonpayable",
      "type": "function"
    },
    {
      "inputs": [
        {
          "internalType": "address payable",
          "name": "to",
          "type": "address"
        },
        {
          "internalType": "uint256",
          "name": "amount",
          "type": "uint256"
        }
      ],
      "name": "send",
      "outputs": [],
      "stateMutability": "nonpayable",
      "type": "function"
    },
    {
      "inputs": [],
      "name": "sendPremium",
      "outputs": [],
      "stateMutability": "payable",
      "type": "function"
    },
    {
      "inputs": [
        {
          "internalType": "uint256",
          "name": "value",
          "type": "uint256"
        }
      ],
      "name": "setLockupPeriod",
      "outputs": [],
      "stateMutability": "nonpayable",
      "type": "function"
    },
    {
      "inputs": [
        {
          "internalType": "address",
          "name": "account",
          "type": "address"
        }
      ],
      "name": "shareOf",
      "outputs": [
        {
          "internalType": "uint256",
          "name": "share",
          "type": "uint256"
        }
      ],
      "stateMutability": "view",
      "type": "function"
    },
    {
      "inputs": [],
      "name": "symbol",
      "outputs": [
        {
          "internalType": "string",
          "name": "",
          "type": "string"
        }
      ],
      "stateMutability": "view",
      "type": "function"
    },
    {
      "inputs": [],
      "name": "totalBalance",
      "outputs": [
        {
          "internalType": "uint256",
          "name": "balance",
          "type": "uint256"
        }
      ],
      "stateMutability": "view",
      "type": "function"
    },
    {
      "inputs": [],
      "name": "totalSupply",
      "outputs": [
        {
          "internalType": "uint256",
          "name": "",
          "type": "uint256"
        }
      ],
      "stateMutability": "view",
      "type": "function"
    },
    {
      "inputs": [
        {
          "internalType": "address",
          "name": "to",
          "type": "address"
        },
        {
          "internalType": "uint256",
          "name": "amount",
          "type": "uint256"
        }
      ],
      "name": "transfer",
      "outputs": [
        {
          "internalType": "bool",
          "name": "",
          "type": "bool"
        }
      ],
      "stateMutability": "nonpayable",
      "type": "function"
    },
    {
      "inputs": [
        {
          "internalType": "address",
          "name": "from",
          "type": "address"
        },
        {
          "internalType": "address",
          "name": "to",
          "type": "address"
        },
        {
          "internalType": "uint256",
          "name": "amount",
          "type": "uint256"
        }
      ],
      "name": "transferFrom",
      "outputs": [
        {
          "internalType": "bool",
          "name": "",
          "type": "bool"
        }
      ],
      "stateMutability": "nonpayable",
      "type": "function"
    },
    {
      "inputs": [
        {
          "internalType": "address",
          "name": "newOwner",
          "type": "address"
        }
      ],
      "name": "transferOwnership",
      "outputs": [],
      "stateMutability": "nonpayable",
      "type": "function"
    },
    {
      "inputs": [
        {
          "internalType": "uint256",
          "name": "amount",
          "type": "uint256"
        }
      ],
      "name": "unlock",
      "outputs": [],
      "stateMutability": "nonpayable",
      "type": "function"
    },
    {
      "inputs": [
        {
          "internalType": "uint256",
          "name": "amount",
          "type": "uint256"
        }
      ],
      "name": "unlockPremium",
      "outputs": [],
      "stateMutability": "nonpayable",
      "type": "function"
    },
    {
      "inputs": [
        {
          "internalType": "uint256",
          "name": "amount",
          "type": "uint256"
        },
        {
          "internalType": "uint256",
          "name": "maxBurn",
          "type": "uint256"
        }
      ],
      "name": "withdraw",
      "outputs": [
        {
          "internalType": "uint256",
          "name": "burn",
          "type": "uint256"
        }
      ],
      "stateMutability": "nonpayable",
      "type": "function"
    },
    {
      "stateMutability": "payable",
      "type": "receive"
    }
  ],
  "bytecode": "0x6080604052621275006006553480156200001857600080fd5b506040518060400160405280601481526020017f437275697a652055534443204c5020546f6b656e0000000000000000000000008152506040518060400160405280600981526020016877726974655553444360b81b8152506200008b62000085620000bf60201b60201c565b620000c3565b8151620000a090600490602085019062000113565b508051620000b690600590602084019062000113565b505050620001f6565b3390565b600080546001600160a01b038381166001600160a01b0319831681178455604051919092169283917f8be0079c531659141344cd1fd0a4f28419497f9722a3daafe3b4186f6b6457e09190a35050565b8280546200012190620001b9565b90600052602060002090601f01602090048101928262000145576000855562000190565b82601f106200016057805160ff191683800117855562000190565b8280016001018555821562000190579182015b828111156200019057825182559160200191906001019062000173565b506200019e929150620001a2565b5090565b5b808211156200019e5760008155600101620001a3565b600281046001821680620001ce57607f821691505b60208210811415620001f057634e487b7160e01b600052602260045260246000fd5b50919050565b611a8d80620002066000396000f3fe6080604052600436106101bb5760003560e01c80638da5cb5b116100ec578063c771c3901161008a578063dd62ed3e11610064578063dd62ed3e1461048d578063e8c3c54f146104ad578063ee947a7c146104c0578063f2fde38b146104d5576101c2565b8063c771c3901461042d578063d0679d341461044d578063dd4670641461046d576101c2565b8063a457c2d7116100c6578063a457c2d7146103c3578063a9059cbb146103e3578063ab2f0e5114610403578063ad7a672f14610418576101c2565b80638da5cb5b1461038457806395d89b41146103a65780639ac1f394146103bb576101c2565b8063441a3e701161015957806370a082311161013357806370a082311461031a578063715018a61461033a578063797be55e1461034f5780638052882a14610364576101c2565b8063441a3e70146102c35780636198e339146102e35780636ab28bc814610305576101c2565b806321e5e2c41161019557806321e5e2c41461024157806323b872dd14610261578063313ce5671461028157806339509351146102a3576101c2565b806306fdde03146101c7578063095ea7b3146101f257806318160ddd1461021f576101c2565b366101c257005b600080fd5b3480156101d357600080fd5b506101dc6104f5565b6040516101e9919061139b565b60405180910390f35b3480156101fe57600080fd5b5061021261020d3660046112ad565b610587565b6040516101e99190611390565b34801561022b57600080fd5b506102346105a9565b6040516101e9919061195e565b34801561024d57600080fd5b5061023461025c3660046111ee565b6105af565b34801561026d57600080fd5b5061021261027c36600461126d565b6105fb565b34801561028d57600080fd5b50610296610629565b6040516101e99190611975565b3480156102af57600080fd5b506102126102be3660046112ad565b61062e565b3480156102cf57600080fd5b506102346102de3660046112f7565b61065a565b3480156102ef57600080fd5b506103036102fe3660046112df565b610853565b005b34801561031157600080fd5b506102346108c7565b34801561032657600080fd5b506102346103353660046111ee565b6108cd565b34801561034657600080fd5b506103036108e8565b34801561035b57600080fd5b50610234610933565b34801561037057600080fd5b5061030361037f3660046112df565b610939565b34801561039057600080fd5b506103996109ad565b6040516101e99190611363565b3480156103b257600080fd5b506101dc6109bc565b6103036109cb565b3480156103cf57600080fd5b506102126103de3660046112ad565b610a1c565b3480156103ef57600080fd5b506102126103fe3660046112ad565b610a64565b34801561040f57600080fd5b50610234610a7c565b34801561042457600080fd5b50610234610a97565b34801561043957600080fd5b506103036104483660046112df565b610aae565b34801561045957600080fd5b5061030361046836600461120a565b610b15565b34801561047957600080fd5b506103036104883660046112df565b610bc4565b34801561049957600080fd5b506102346104a8366004611235565b610c54565b6102346104bb3660046112f7565b610c7f565b3480156104cc57600080fd5b50610234610d29565b3480156104e157600080fd5b506103036104f03660046111ee565b610d2f565b606060048054610504906119f1565b80601f0160208091040260200160405190810160405280929190818152602001828054610530906119f1565b801561057d5780601f106105525761010080835404028352916020019161057d565b820191906000526020600020905b81548152906001019060200180831161056057829003601f168201915b5050505050905090565b600080610592610da0565b905061059f818585610da4565b5060019392505050565b60035490565b6000806105ba6105a9565b11156105f2576105eb6105cb6105a9565b6105e56105d7856108cd565b6105df610a97565b90610e58565b90610e6b565b90506105f6565b5060005b919050565b600080610606610da0565b9050610613858285610e77565b61061e858585610ec1565b506001949350505050565b601290565b600080610639610da0565b905061059f81858561064b8589610c54565b6106559190611983565b610da4565b6000610665336108cd565b83111580156106745750600083115b61067d57600080fd5b60065433600090815260096020526040902054429161069c9190610fe5565b11156106c35760405162461bcd60e51b81526004016106ba906113d0565b60405180910390fd5b6106cb610a7c565b8311156106ea5760405162461bcd60e51b81526004016106ba9061144a565b6107076106f5610a97565b6105e56107006105a9565b8690610e58565b9050818111156107295760405162461bcd60e51b81526004016106ba90611830565b610732336108cd565b8111156107515760405162461bcd60e51b81526004016106ba906118e2565b600081116107715760405162461bcd60e51b81526004016106ba906118ab565b61077b3382610ff1565b60405163a9059cbb60e01b815273b7a4f3e9097c08da09517b5ab877f7a917224ede90819063a9059cbb906107b69033908890600401611377565b602060405180830381600087803b1580156107d057600080fd5b505af11580156107e4573d6000803e3d6000fd5b505050506040513d601f19601f8201168201806040525081019061080891906112bf565b50336001600160a01b03167ff279e6a1f5e320cca91135676d9cb6e44ca8a08c0b88342bcdb1144f6511b5688584604051610844929190611967565b60405180910390a25092915050565b61085b610da0565b6001600160a01b031661086c6109ad565b6001600160a01b0316146108925760405162461bcd60e51b81526004016106ba9061173e565b8060075410156108b45760405162461bcd60e51b81526004016106ba906116a1565b6007546108c190826110e2565b60075550565b60075481565b6001600160a01b031660009081526001602052604090205490565b6108f0610da0565b6001600160a01b03166109016109ad565b6001600160a01b0316146109275760405162461bcd60e51b81526004016106ba9061173e565b61093160006110ee565b565b60085481565b610941610da0565b6001600160a01b03166109526109ad565b6001600160a01b0316146109785760405162461bcd60e51b81526004016106ba9061173e565b80600854101561099a5760405162461bcd60e51b81526004016106ba90611585565b6008546109a790826110e2565b60085550565b6000546001600160a01b031690565b606060058054610504906119f1565b6109d3610da0565b6001600160a01b03166109e46109ad565b6001600160a01b031614610a0a5760405162461bcd60e51b81526004016106ba9061173e565b600854610a179034610fe5565b600855565b600080610a27610da0565b90506000610a358286610c54565b905083811015610a575760405162461bcd60e51b81526004016106ba90611919565b61061e8286868403610da4565b600080610a6f610da0565b905061059f818585610ec1565b6000610a92600754610a8c610a97565b906110e2565b905090565b6000610a92600854476110e290919063ffffffff16565b610ab6610da0565b6001600160a01b0316610ac76109ad565b6001600160a01b031614610aed5760405162461bcd60e51b81526004016106ba9061173e565b624f1a00811115610b105760405162461bcd60e51b81526004016106ba906117b4565b600655565b610b1d610da0565b6001600160a01b0316610b2e6109ad565b6001600160a01b031614610b545760405162461bcd60e51b81526004016106ba9061173e565b6001600160a01b038216610b6757600080fd5b806007541015610b895760405162461bcd60e51b81526004016106ba90611585565b6040516001600160a01b0383169082156108fc029083906000818181858888f19350505050158015610bbf573d6000803e3d6000fd5b505050565b610bcc610da0565b6001600160a01b0316610bdd6109ad565b6001600160a01b031614610c035760405162461bcd60e51b81526004016106ba9061173e565b6008610c2a610c10610a97565b6105e5600a6105df86600754610fe590919063ffffffff16565b10610c475760405162461bcd60e51b81526004016106ba906116a1565b6007546108c19082610fe5565b6001600160a01b03918216600090815260026020908152604080832093909416825291909152205490565b6000808211610ca05760405162461bcd60e51b81526004016106ba906118ab565b610cdf6040518060400160405280601b81526020017f746869732069732076616c7565206f66206d736720766c6175652000000000008152503461113e565b336001600160a01b03167f4089141ea5e4c16575f5ebf65f1786497ea07c175846fc7745ef8d8986a4ff65836001604051610d1b929190611967565b60405180910390a292915050565b60065481565b610d37610da0565b6001600160a01b0316610d486109ad565b6001600160a01b031614610d6e5760405162461bcd60e51b81526004016106ba9061173e565b6001600160a01b038116610d945760405162461bcd60e51b81526004016106ba906114fd565b610d9d816110ee565b50565b3390565b6001600160a01b038316610dca5760405162461bcd60e51b81526004016106ba90611867565b6001600160a01b038216610df05760405162461bcd60e51b81526004016106ba90611543565b6001600160a01b0380841660008181526002602090815260408083209487168084529490915290819020849055517f8c5be1e5ebec7d5bd14f71427d1e84f3dd0314c0f7b2291e5b200ac8c7c3b92590610e4b90859061195e565b60405180910390a3505050565b6000610e6482846119bb565b9392505050565b6000610e64828461199b565b6000610e838484610c54565b90506000198114610ebb5781811015610eae5760405162461bcd60e51b81526004016106ba90611624565b610ebb8484848403610da4565b50505050565b6001600160a01b038316610ee75760405162461bcd60e51b81526004016106ba906117eb565b6001600160a01b038216610f0d5760405162461bcd60e51b81526004016106ba90611407565b610f18838383611187565b6001600160a01b03831660009081526001602052604090205481811015610f515760405162461bcd60e51b81526004016106ba9061165b565b6001600160a01b03808516600090815260016020526040808220858503905591851681529081208054849290610f88908490611983565b92505081905550826001600160a01b0316846001600160a01b03167fddf252ad1be2c89b69c2b068fc378daa952ba7f163c4a11628f55a4df523b3ef84604051610fd2919061195e565b60405180910390a3610ebb848484610bbf565b6000610e648284611983565b6001600160a01b0382166110175760405162461bcd60e51b81526004016106ba90611773565b61102382600083611187565b6001600160a01b0382166000908152600160205260409020548181101561105c5760405162461bcd60e51b81526004016106ba906114bb565b6001600160a01b038316600090815260016020526040812083830390556003805484929061108b9084906119da565b90915550506040516000906001600160a01b038516907fddf252ad1be2c89b69c2b068fc378daa952ba7f163c4a11628f55a4df523b3ef906110ce90869061195e565b60405180910390a3610bbf83600084610bbf565b6000610e6482846119da565b600080546001600160a01b038381166001600160a01b0319831681178455604051919092169283917f8be0079c531659141344cd1fd0a4f28419497f9722a3daafe3b4186f6b6457e09190a35050565b61118382826040516024016111549291906113ae565b60408051601f198184030181529190526020810180516001600160e01b03166309710a9d60e41b1790526111cd565b5050565b6006546001600160a01b03841660009081526009602052604090205442916111af9190610fe5565b1115610bbf5760405162461bcd60e51b81526004016106ba906113d0565b80516a636f6e736f6c652e6c6f67602083016000808483855afa5050505050565b6000602082840312156111ff578081fd5b8135610e6481611a42565b6000806040838503121561121c578081fd5b823561122781611a42565b946020939093013593505050565b60008060408385031215611247578182fd5b823561125281611a42565b9150602083013561126281611a42565b809150509250929050565b600080600060608486031215611281578081fd5b833561128c81611a42565b9250602084013561129c81611a42565b929592945050506040919091013590565b6000806040838503121561121c578182fd5b6000602082840312156112d0578081fd5b81518015158114610e64578182fd5b6000602082840312156112f0578081fd5b5035919050565b60008060408385031215611309578182fd5b50508035926020909101359150565b60008151808452815b8181101561133d57602081850181015186830182015201611321565b8181111561134e5782602083870101525b50601f01601f19169290920160200192915050565b6001600160a01b0391909116815260200190565b6001600160a01b03929092168252602082015260400190565b901515815260200190565b600060208252610e646020830184611318565b6000604082526113c16040830185611318565b90508260208301529392505050565b6020808252601d908201527f506f6f6c3a205769746864726177616c206973206c6f636b6564207570000000604082015260600190565b60208082526023908201527f45524332303a207472616e7366657220746f20746865207a65726f206164647260408201526265737360e81b606082015260800190565b6020808252604b908201527f506f6f6c204572726f723a204e6f7420656e6f7567682066756e6473206f6e2060408201527f74686520706f6f6c20636f6e74726163742e20506c65617365206c6f7765722060608201526a3a34329030b6b7bab73a1760a91b608082015260a00190565b60208082526022908201527f45524332303a206275726e20616d6f756e7420657863656564732062616c616e604082015261636560f01b606082015260800190565b60208082526026908201527f4f776e61626c653a206e6577206f776e657220697320746865207a65726f206160408201526564647265737360d01b606082015260800190565b60208082526022908201527f45524332303a20617070726f766520746f20746865207a65726f206164647265604082015261737360f01b606082015260800190565b60208082526073908201527f506f6f6c204572726f723a20596f752061726520747279696e6720746f20756e60408201527f6c6f636b206d6f7265207072656d69756d73207468616e20686176652062656560608201527f6e206c6f636b656420666f722074686520636f6e74726163742e20506c65617360808201527232903637bbb2b9103a34329030b6b7bab73a1760691b60a082015260c00190565b6020808252601d908201527f45524332303a20696e73756666696369656e7420616c6c6f77616e6365000000604082015260600190565b60208082526026908201527f45524332303a207472616e7366657220616d6f756e7420657863656564732062604082015265616c616e636560d01b606082015260800190565b60208082526071908201527f506f6f6c204572726f723a20596f752061726520747279696e6720746f20756e60408201527f6c6f636b206d6f72652066756e6473207468616e2068617665206265656e206c60608201527f6f636b656420666f7220796f757220636f6e74726163742e20506c65617365206080820152703637bbb2b9103a34329030b6b7bab73a1760791b60a082015260c00190565b6020808252818101527f4f776e61626c653a2063616c6c6572206973206e6f7420746865206f776e6572604082015260600190565b60208082526021908201527f45524332303a206275726e2066726f6d20746865207a65726f206164647265736040820152607360f81b606082015260800190565b6020808252601a908201527f4c6f636b757020706572696f6420697320746f6f206c61726765000000000000604082015260600190565b60208082526025908201527f45524332303a207472616e736665722066726f6d20746865207a65726f206164604082015264647265737360d81b606082015260800190565b6020808252601d908201527f506f6f6c3a204275726e206c696d697420697320746f6f20736d616c6c000000604082015260600190565b60208082526024908201527f45524332303a20617070726f76652066726f6d20746865207a65726f206164646040820152637265737360e01b606082015260800190565b60208082526019908201527f506f6f6c3a20416d6f756e7420697320746f6f20736d616c6c00000000000000604082015260600190565b60208082526019908201527f506f6f6c3a20416d6f756e7420697320746f6f206c6172676500000000000000604082015260600190565b60208082526025908201527f45524332303a2064656372656173656420616c6c6f77616e63652062656c6f77604082015264207a65726f60d81b606082015260800190565b90815260200190565b918252602082015260400190565b60ff91909116815260200190565b6000821982111561199657611996611a2c565b500190565b6000826119b657634e487b7160e01b81526012600452602481fd5b500490565b60008160001904831182151516156119d5576119d5611a2c565b500290565b6000828210156119ec576119ec611a2c565b500390565b600281046001821680611a0557607f821691505b60208210811415611a2657634e487b7160e01b600052602260045260246000fd5b50919050565b634e487b7160e01b600052601160045260246000fd5b6001600160a01b0381168114610d9d57600080fdfea264697066735822122022751d3081f92b96ff631a0b19a0e23c46076cd8411c6dbfc98983b4a8263dce64736f6c63430008000033",
  "linkReferences": {},
  "deployedLinkReferences": {}
}