{
  "_format": "hh-sol-artifact-1",
  "contractName": "USDCPool",
  "sourceName": "contracts/USDCPool.sol",
  "abi": [
    {
      "anonymous": false,
      "inputs": [
        {
          "indexed": true,
          "internalType": "address",
          "name": "owner",
          "type": "address"
        },
        {
          "indexed": true,
          "internalType": "address",
          "name": "spender",
          "type": "address"
        },
        {
          "indexed": false,
          "internalType": "uint256",
          "name": "value",
          "type": "uint256"
        }
      ],
      "name": "Approval",
      "type": "event"
    },
    {
      "anonymous": false,
      "inputs": [
        {
          "indexed": true,
          "internalType": "address",
          "name": "previousOwner",
          "type": "address"
        },
        {
          "indexed": true,
          "internalType": "address",
          "name": "newOwner",
          "type": "address"
        }
      ],
      "name": "OwnershipTransferred",
      "type": "event"
    },
    {
      "anonymous": false,
      "inputs": [
        {
          "indexed": true,
          "internalType": "address",
          "name": "account",
          "type": "address"
        },
        {
          "indexed": false,
          "internalType": "uint256",
          "name": "amount",
          "type": "uint256"
        },
        {
          "indexed": false,
          "internalType": "uint256",
          "name": "writeAmount",
          "type": "uint256"
        }
      ],
      "name": "Provide",
      "type": "event"
    },
    {
      "anonymous": false,
      "inputs": [
        {
          "indexed": true,
          "internalType": "address",
          "name": "from",
          "type": "address"
        },
        {
          "indexed": true,
          "internalType": "address",
          "name": "to",
          "type": "address"
        },
        {
          "indexed": false,
          "internalType": "uint256",
          "name": "value",
          "type": "uint256"
        }
      ],
      "name": "Transfer",
      "type": "event"
    },
    {
      "anonymous": false,
      "inputs": [
        {
          "indexed": true,
          "internalType": "address",
          "name": "account",
          "type": "address"
        },
        {
          "indexed": false,
          "internalType": "uint256",
          "name": "amount",
          "type": "uint256"
        },
        {
          "indexed": false,
          "internalType": "uint256",
          "name": "writeAmount",
          "type": "uint256"
        }
      ],
      "name": "Withdraw",
      "type": "event"
    },
    {
      "inputs": [
        {
          "internalType": "address",
          "name": "owner",
          "type": "address"
        },
        {
          "internalType": "address",
          "name": "spender",
          "type": "address"
        }
      ],
      "name": "allowance",
      "outputs": [
        {
          "internalType": "uint256",
          "name": "",
          "type": "uint256"
        }
      ],
      "stateMutability": "view",
      "type": "function"
    },
    {
      "inputs": [
        {
          "internalType": "address",
          "name": "spender",
          "type": "address"
        },
        {
          "internalType": "uint256",
          "name": "amount",
          "type": "uint256"
        }
      ],
      "name": "approve",
      "outputs": [
        {
          "internalType": "bool",
          "name": "",
          "type": "bool"
        }
      ],
      "stateMutability": "nonpayable",
      "type": "function"
    },
    {
      "inputs": [],
      "name": "availableBalance",
      "outputs": [
        {
          "internalType": "uint256",
          "name": "balance",
          "type": "uint256"
        }
      ],
      "stateMutability": "view",
      "type": "function"
    },
    {
      "inputs": [
        {
          "internalType": "address",
          "name": "account",
          "type": "address"
        }
      ],
      "name": "balanceOf",
      "outputs": [
        {
          "internalType": "uint256",
          "name": "",
          "type": "uint256"
        }
      ],
      "stateMutability": "view",
      "type": "function"
    },
    {
      "inputs": [],
      "name": "decimals",
      "outputs": [
        {
          "internalType": "uint8",
          "name": "",
          "type": "uint8"
        }
      ],
      "stateMutability": "view",
      "type": "function"
    },
    {
      "inputs": [
        {
          "internalType": "address",
          "name": "spender",
          "type": "address"
        },
        {
          "internalType": "uint256",
          "name": "subtractedValue",
          "type": "uint256"
        }
      ],
      "name": "decreaseAllowance",
      "outputs": [
        {
          "internalType": "bool",
          "name": "",
          "type": "bool"
        }
      ],
      "stateMutability": "nonpayable",
      "type": "function"
    },
    {
      "inputs": [
        {
          "internalType": "address",
          "name": "spender",
          "type": "address"
        },
        {
          "internalType": "uint256",
          "name": "addedValue",
          "type": "uint256"
        }
      ],
      "name": "increaseAllowance",
      "outputs": [
        {
          "internalType": "bool",
          "name": "",
          "type": "bool"
        }
      ],
      "stateMutability": "nonpayable",
      "type": "function"
    },
    {
      "inputs": [
        {
          "internalType": "uint256",
          "name": "amount",
          "type": "uint256"
        }
      ],
      "name": "lock",
      "outputs": [],
      "stateMutability": "nonpayable",
      "type": "function"
    },
    {
      "inputs": [],
      "name": "lockedAmount",
      "outputs": [
        {
          "internalType": "uint256",
          "name": "",
          "type": "uint256"
        }
      ],
      "stateMutability": "view",
      "type": "function"
    },
    {
      "inputs": [],
      "name": "lockedPremium",
      "outputs": [
        {
          "internalType": "uint256",
          "name": "",
          "type": "uint256"
        }
      ],
      "stateMutability": "view",
      "type": "function"
    },
    {
      "inputs": [],
      "name": "lockupPeriod",
      "outputs": [
        {
          "internalType": "uint256",
          "name": "",
          "type": "uint256"
        }
      ],
      "stateMutability": "view",
      "type": "function"
    },
    {
      "inputs": [],
      "name": "name",
      "outputs": [
        {
          "internalType": "string",
          "name": "",
          "type": "string"
        }
      ],
      "stateMutability": "view",
      "type": "function"
    },
    {
      "inputs": [],
      "name": "owner",
      "outputs": [
        {
          "internalType": "address",
          "name": "",
          "type": "address"
        }
      ],
      "stateMutability": "view",
      "type": "function"
    },
    {
      "inputs": [
        {
          "internalType": "uint256",
          "name": "minMint",
          "type": "uint256"
        }
      ],
      "name": "provide",
      "outputs": [
        {
          "internalType": "uint256",
          "name": "mint",
          "type": "uint256"
        }
      ],
      "stateMutability": "payable",
      "type": "function"
    },
    {
      "inputs": [],
      "name": "renounceOwnership",
      "outputs": [],
      "stateMutability": "nonpayable",
      "type": "function"
    },
    {
      "inputs": [
        {
          "internalType": "address payable",
          "name": "to",
          "type": "address"
        },
        {
          "internalType": "uint256",
          "name": "amount",
          "type": "uint256"
        }
      ],
      "name": "send",
      "outputs": [],
      "stateMutability": "nonpayable",
      "type": "function"
    },
    {
      "inputs": [],
      "name": "sendPremium",
      "outputs": [],
      "stateMutability": "payable",
      "type": "function"
    },
    {
      "inputs": [
        {
          "internalType": "uint256",
          "name": "value",
          "type": "uint256"
        }
      ],
      "name": "setLockupPeriod",
      "outputs": [],
      "stateMutability": "nonpayable",
      "type": "function"
    },
    {
      "inputs": [
        {
          "internalType": "address",
          "name": "account",
          "type": "address"
        }
      ],
      "name": "shareOf",
      "outputs": [
        {
          "internalType": "uint256",
          "name": "share",
          "type": "uint256"
        }
      ],
      "stateMutability": "view",
      "type": "function"
    },
    {
      "inputs": [],
      "name": "symbol",
      "outputs": [
        {
          "internalType": "string",
          "name": "",
          "type": "string"
        }
      ],
      "stateMutability": "view",
      "type": "function"
    },
    {
      "inputs": [],
      "name": "totalBalance",
      "outputs": [
        {
          "internalType": "uint256",
          "name": "balance",
          "type": "uint256"
        }
      ],
      "stateMutability": "view",
      "type": "function"
    },
    {
      "inputs": [],
      "name": "totalSupply",
      "outputs": [
        {
          "internalType": "uint256",
          "name": "",
          "type": "uint256"
        }
      ],
      "stateMutability": "view",
      "type": "function"
    },
    {
      "inputs": [
        {
          "internalType": "address",
          "name": "to",
          "type": "address"
        },
        {
          "internalType": "uint256",
          "name": "amount",
          "type": "uint256"
        }
      ],
      "name": "transfer",
      "outputs": [
        {
          "internalType": "bool",
          "name": "",
          "type": "bool"
        }
      ],
      "stateMutability": "nonpayable",
      "type": "function"
    },
    {
      "inputs": [
        {
          "internalType": "address",
          "name": "from",
          "type": "address"
        },
        {
          "internalType": "address",
          "name": "to",
          "type": "address"
        },
        {
          "internalType": "uint256",
          "name": "amount",
          "type": "uint256"
        }
      ],
      "name": "transferFrom",
      "outputs": [
        {
          "internalType": "bool",
          "name": "",
          "type": "bool"
        }
      ],
      "stateMutability": "nonpayable",
      "type": "function"
    },
    {
      "inputs": [
        {
          "internalType": "address",
          "name": "newOwner",
          "type": "address"
        }
      ],
      "name": "transferOwnership",
      "outputs": [],
      "stateMutability": "nonpayable",
      "type": "function"
    },
    {
      "inputs": [
        {
          "internalType": "uint256",
          "name": "amount",
          "type": "uint256"
        }
      ],
      "name": "unlock",
      "outputs": [],
      "stateMutability": "nonpayable",
      "type": "function"
    },
    {
      "inputs": [
        {
          "internalType": "uint256",
          "name": "amount",
          "type": "uint256"
        }
      ],
      "name": "unlockPremium",
      "outputs": [],
      "stateMutability": "nonpayable",
      "type": "function"
    },
    {
      "inputs": [
        {
          "internalType": "uint256",
          "name": "amount",
          "type": "uint256"
        },
        {
          "internalType": "uint256",
          "name": "maxBurn",
          "type": "uint256"
        }
      ],
      "name": "withdraw",
      "outputs": [
        {
          "internalType": "uint256",
          "name": "burn",
          "type": "uint256"
        }
      ],
      "stateMutability": "nonpayable",
      "type": "function"
    },
    {
      "stateMutability": "payable",
      "type": "receive"
    }
  ],
  "bytecode": "0x6080604052621275006006553480156200001857600080fd5b506040518060400160405280601481526020017f437275697a652055534443204c5020546f6b656e0000000000000000000000008152506040518060400160405280600981526020016877726974655553444360b81b8152506200008b62000085620000bf60201b60201c565b620000c3565b8151620000a090600490602085019062000113565b508051620000b690600590602084019062000113565b505050620001f6565b3390565b600080546001600160a01b038381166001600160a01b0319831681178455604051919092169283917f8be0079c531659141344cd1fd0a4f28419497f9722a3daafe3b4186f6b6457e09190a35050565b8280546200012190620001b9565b90600052602060002090601f01602090048101928262000145576000855562000190565b82601f106200016057805160ff191683800117855562000190565b8280016001018555821562000190579182015b828111156200019057825182559160200191906001019062000173565b506200019e929150620001a2565b5090565b5b808211156200019e5760008155600101620001a3565b600281046001821680620001ce57607f821691505b60208210811415620001f057634e487b7160e01b600052602260045260246000fd5b50919050565b611ac980620002066000396000f3fe6080604052600436106101bb5760003560e01c80638052882a116100ec578063ad7a672f1161008a578063dd46706411610064578063dd46706414610480578063dd62ed3e146104a0578063ee947a7c146104c0578063f2fde38b146104d5576101c2565b8063ad7a672f1461042b578063c771c39014610440578063d0679d3414610460576101c2565b80639ac1f394116100c65780639ac1f394146103ce578063a457c2d7146103d6578063a9059cbb146103f6578063ab2f0e5114610416576101c2565b80638052882a146103775780638da5cb5b1461039757806395d89b41146103b9576101c2565b806339509351116101595780636ab28bc8116101335780636ab28bc81461031857806370a082311461032d578063715018a61461034d578063797be55e14610362576101c2565b806339509351146102b6578063441a3e70146102d65780636198e339146102f6576101c2565b806321e5e2c41161019557806321e5e2c41461024157806323b872dd146102615780632e2ebe0614610281578063313ce56714610294576101c2565b806306fdde03146101c7578063095ea7b3146101f257806318160ddd1461021f576101c2565b366101c257005b600080fd5b3480156101d357600080fd5b506101dc6104f5565b6040516101e9919061134b565b60405180910390f35b3480156101fe57600080fd5b5061021261020d3660046112e1565b610587565b6040516101e99190611340565b34801561022b57600080fd5b506102346105a9565b6040516101e9919061199a565b34801561024d57600080fd5b5061023461025c366004611222565b6105af565b34801561026d57600080fd5b5061021261027c3660046112a1565b6105fb565b61023461028f3660046112f3565b610629565b3480156102a057600080fd5b506102a9610731565b6040516101e991906119b1565b3480156102c257600080fd5b506102126102d13660046112e1565b610736565b3480156102e257600080fd5b506102346102f136600461130b565b610762565b34801561030257600080fd5b506103166103113660046112f3565b6108cf565b005b34801561032457600080fd5b50610234610943565b34801561033957600080fd5b50610234610348366004611222565b610949565b34801561035957600080fd5b50610316610964565b34801561036e57600080fd5b506102346109af565b34801561038357600080fd5b506103166103923660046112f3565b6109b5565b3480156103a357600080fd5b506103ac610a29565b6040516101e9919061132c565b3480156103c557600080fd5b506101dc610a38565b610316610a47565b3480156103e257600080fd5b506102126103f13660046112e1565b610a98565b34801561040257600080fd5b506102126104113660046112e1565b610ae0565b34801561042257600080fd5b50610234610af8565b34801561043757600080fd5b50610234610b13565b34801561044c57600080fd5b5061031661045b3660046112f3565b610b2a565b34801561046c57600080fd5b5061031661047b36600461123e565b610b91565b34801561048c57600080fd5b5061031661049b3660046112f3565b610c40565b3480156104ac57600080fd5b506102346104bb366004611269565b610cd0565b3480156104cc57600080fd5b50610234610cfb565b3480156104e157600080fd5b506103166104f0366004611222565b610d01565b60606004805461050490611a2d565b80601f016020809104026020016040519081016040528092919081815260200182805461053090611a2d565b801561057d5780601f106105525761010080835404028352916020019161057d565b820191906000526020600020905b81548152906001019060200180831161056057829003601f168201915b5050505050905090565b600080610592610d72565b905061059f818585610d76565b5060019392505050565b60035490565b6000806105ba6105a9565b11156105f2576105eb6105cb6105a9565b6105e56105d785610949565b6105df610b13565b90610e2a565b90610e3d565b90506105f6565b5060005b919050565b600080610606610d72565b9050610613858285610e49565b61061e858585610e93565b506001949350505050565b60008034116106535760405162461bcd60e51b815260040161064a906118b0565b60405180910390fd5b33600090815260096020526040812042905561066d6105a9565b90506000610679610b13565b905060008211801561068b5750600081115b156106ae576106a761069d8234610fb7565b6105e53485610e2a565b92506106bd565b6106ba346103e8610e2a565b92505b838310156106dd5760405162461bcd60e51b815260040161064a9061166f565b6106e73384610fc3565b336001600160a01b03167f4089141ea5e4c16575f5ebf65f1786497ea07c175846fc7745ef8d8986a4ff6534856040516107229291906119a3565b60405180910390a25050919050565b601290565b600080610741610d72565b905061059f8185856107538589610cd0565b61075d91906119bf565b610d76565b60065433600090815260096020526040812054909142916107829161108f565b11156107a05760405162461bcd60e51b815260040161064a9061139e565b6107a8610af8565b8311156107c75760405162461bcd60e51b815260040161064a90611418565b6107e46107d2610b13565b6105e56107dd6105a9565b8690610e2a565b9050818111156108065760405162461bcd60e51b815260040161064a90611835565b61080f33610949565b81111561082e5760405162461bcd60e51b815260040161064a906118e7565b6000811161084e5760405162461bcd60e51b815260040161064a906118b0565b610858338261109b565b336001600160a01b03167ff279e6a1f5e320cca91135676d9cb6e44ca8a08c0b88342bcdb1144f6511b56884836040516108939291906119a3565b60405180910390a2604051339084156108fc029085906000818181858888f193505050501580156108c8573d6000803e3d6000fd5b5092915050565b6108d7610d72565b6001600160a01b03166108e8610a29565b6001600160a01b03161461090e5760405162461bcd60e51b815260040161064a90611743565b8060075410156109305760405162461bcd60e51b815260040161064a906116a6565b60075461093d9082610fb7565b60075550565b60075481565b6001600160a01b031660009081526001602052604090205490565b61096c610d72565b6001600160a01b031661097d610a29565b6001600160a01b0316146109a35760405162461bcd60e51b815260040161064a90611743565b6109ad600061118c565b565b60085481565b6109bd610d72565b6001600160a01b03166109ce610a29565b6001600160a01b0316146109f45760405162461bcd60e51b815260040161064a90611743565b806008541015610a165760405162461bcd60e51b815260040161064a90611553565b600854610a239082610fb7565b60085550565b6000546001600160a01b031690565b60606005805461050490611a2d565b610a4f610d72565b6001600160a01b0316610a60610a29565b6001600160a01b031614610a865760405162461bcd60e51b815260040161064a90611743565b600854610a93903461108f565b600855565b600080610aa3610d72565b90506000610ab18286610cd0565b905083811015610ad35760405162461bcd60e51b815260040161064a9061191e565b61061e8286868403610d76565b600080610aeb610d72565b905061059f818585610e93565b6000610b0e600754610b08610b13565b90610fb7565b905090565b6000610b0e60085447610fb790919063ffffffff16565b610b32610d72565b6001600160a01b0316610b43610a29565b6001600160a01b031614610b695760405162461bcd60e51b815260040161064a90611743565b624f1a00811115610b8c5760405162461bcd60e51b815260040161064a906117b9565b600655565b610b99610d72565b6001600160a01b0316610baa610a29565b6001600160a01b031614610bd05760405162461bcd60e51b815260040161064a90611743565b6001600160a01b038216610be357600080fd5b806007541015610c055760405162461bcd60e51b815260040161064a90611553565b6040516001600160a01b0383169082156108fc029083906000818181858888f19350505050158015610c3b573d6000803e3d6000fd5b505050565b610c48610d72565b6001600160a01b0316610c59610a29565b6001600160a01b031614610c7f5760405162461bcd60e51b815260040161064a90611743565b6008610ca6610c8c610b13565b6105e5600a6105df8660075461108f90919063ffffffff16565b10610cc35760405162461bcd60e51b815260040161064a906116a6565b60075461093d908261108f565b6001600160a01b03918216600090815260026020908152604080832093909416825291909152205490565b60065481565b610d09610d72565b6001600160a01b0316610d1a610a29565b6001600160a01b031614610d405760405162461bcd60e51b815260040161064a90611743565b6001600160a01b038116610d665760405162461bcd60e51b815260040161064a906114cb565b610d6f8161118c565b50565b3390565b6001600160a01b038316610d9c5760405162461bcd60e51b815260040161064a9061186c565b6001600160a01b038216610dc25760405162461bcd60e51b815260040161064a90611511565b6001600160a01b0380841660008181526002602090815260408083209487168084529490915290819020849055517f8c5be1e5ebec7d5bd14f71427d1e84f3dd0314c0f7b2291e5b200ac8c7c3b92590610e1d90859061199a565b60405180910390a3505050565b6000610e3682846119f7565b9392505050565b6000610e3682846119d7565b6000610e558484610cd0565b90506000198114610e8d5781811015610e805760405162461bcd60e51b815260040161064a906115f2565b610e8d8484848403610d76565b50505050565b6001600160a01b038316610eb95760405162461bcd60e51b815260040161064a906117f0565b6001600160a01b038216610edf5760405162461bcd60e51b815260040161064a906113d5565b610eea8383836111dc565b6001600160a01b03831660009081526001602052604090205481811015610f235760405162461bcd60e51b815260040161064a90611629565b6001600160a01b03808516600090815260016020526040808220858503905591851681529081208054849290610f5a9084906119bf565b92505081905550826001600160a01b0316846001600160a01b03167fddf252ad1be2c89b69c2b068fc378daa952ba7f163c4a11628f55a4df523b3ef84604051610fa4919061199a565b60405180910390a3610e8d848484610c3b565b6000610e368284611a16565b6001600160a01b038216610fe95760405162461bcd60e51b815260040161064a90611963565b610ff5600083836111dc565b806003600082825461100791906119bf565b90915550506001600160a01b038216600090815260016020526040812080548392906110349084906119bf565b90915550506040516001600160a01b038316906000907fddf252ad1be2c89b69c2b068fc378daa952ba7f163c4a11628f55a4df523b3ef9061107790859061199a565b60405180910390a361108b60008383610c3b565b5050565b6000610e3682846119bf565b6001600160a01b0382166110c15760405162461bcd60e51b815260040161064a90611778565b6110cd826000836111dc565b6001600160a01b038216600090815260016020526040902054818110156111065760405162461bcd60e51b815260040161064a90611489565b6001600160a01b0383166000908152600160205260408120838303905560038054849290611135908490611a16565b90915550506040516000906001600160a01b038516907fddf252ad1be2c89b69c2b068fc378daa952ba7f163c4a11628f55a4df523b3ef9061117890869061199a565b60405180910390a3610c3b83600084610c3b565b600080546001600160a01b038381166001600160a01b0319831681178455604051919092169283917f8be0079c531659141344cd1fd0a4f28419497f9722a3daafe3b4186f6b6457e09190a35050565b6006546001600160a01b0384166000908152600960205260409020544291611204919061108f565b1115610c3b5760405162461bcd60e51b815260040161064a9061139e565b600060208284031215611233578081fd5b8135610e3681611a7e565b60008060408385031215611250578081fd5b823561125b81611a7e565b946020939093013593505050565b6000806040838503121561127b578182fd5b823561128681611a7e565b9150602083013561129681611a7e565b809150509250929050565b6000806000606084860312156112b5578081fd5b83356112c081611a7e565b925060208401356112d081611a7e565b929592945050506040919091013590565b60008060408385031215611250578182fd5b600060208284031215611304578081fd5b5035919050565b6000806040838503121561131d578182fd5b50508035926020909101359150565b6001600160a01b0391909116815260200190565b901515815260200190565b6000602080835283518082850152825b818110156113775785810183015185820160400152820161135b565b818111156113885783604083870101525b50601f01601f1916929092016040019392505050565b6020808252601d908201527f506f6f6c3a205769746864726177616c206973206c6f636b6564207570000000604082015260600190565b60208082526023908201527f45524332303a207472616e7366657220746f20746865207a65726f206164647260408201526265737360e81b606082015260800190565b6020808252604b908201527f506f6f6c204572726f723a204e6f7420656e6f7567682066756e6473206f6e2060408201527f74686520706f6f6c20636f6e74726163742e20506c65617365206c6f7765722060608201526a3a34329030b6b7bab73a1760a91b608082015260a00190565b60208082526022908201527f45524332303a206275726e20616d6f756e7420657863656564732062616c616e604082015261636560f01b606082015260800190565b60208082526026908201527f4f776e61626c653a206e6577206f776e657220697320746865207a65726f206160408201526564647265737360d01b606082015260800190565b60208082526022908201527f45524332303a20617070726f766520746f20746865207a65726f206164647265604082015261737360f01b606082015260800190565b60208082526073908201527f506f6f6c204572726f723a20596f752061726520747279696e6720746f20756e60408201527f6c6f636b206d6f7265207072656d69756d73207468616e20686176652062656560608201527f6e206c6f636b656420666f722074686520636f6e74726163742e20506c65617360808201527232903637bbb2b9103a34329030b6b7bab73a1760691b60a082015260c00190565b6020808252601d908201527f45524332303a20696e73756666696369656e7420616c6c6f77616e6365000000604082015260600190565b60208082526026908201527f45524332303a207472616e7366657220616d6f756e7420657863656564732062604082015265616c616e636560d01b606082015260800190565b6020808252601d908201527f506f6f6c3a204d696e74206c696d697420697320746f6f206c61726765000000604082015260600190565b60208082526071908201527f506f6f6c204572726f723a20596f752061726520747279696e6720746f20756e60408201527f6c6f636b206d6f72652066756e6473207468616e2068617665206265656e206c60608201527f6f636b656420666f7220796f757220636f6e74726163742e20506c65617365206080820152703637bbb2b9103a34329030b6b7bab73a1760791b60a082015260c00190565b6020808252818101527f4f776e61626c653a2063616c6c6572206973206e6f7420746865206f776e6572604082015260600190565b60208082526021908201527f45524332303a206275726e2066726f6d20746865207a65726f206164647265736040820152607360f81b606082015260800190565b6020808252601a908201527f4c6f636b757020706572696f6420697320746f6f206c61726765000000000000604082015260600190565b60208082526025908201527f45524332303a207472616e736665722066726f6d20746865207a65726f206164604082015264647265737360d81b606082015260800190565b6020808252601d908201527f506f6f6c3a204275726e206c696d697420697320746f6f20736d616c6c000000604082015260600190565b60208082526024908201527f45524332303a20617070726f76652066726f6d20746865207a65726f206164646040820152637265737360e01b606082015260800190565b60208082526019908201527f506f6f6c3a20416d6f756e7420697320746f6f20736d616c6c00000000000000604082015260600190565b60208082526019908201527f506f6f6c3a20416d6f756e7420697320746f6f206c6172676500000000000000604082015260600190565b60208082526025908201527f45524332303a2064656372656173656420616c6c6f77616e63652062656c6f77604082015264207a65726f60d81b606082015260800190565b6020808252601f908201527f45524332303a206d696e7420746f20746865207a65726f206164647265737300604082015260600190565b90815260200190565b918252602082015260400190565b60ff91909116815260200190565b600082198211156119d2576119d2611a68565b500190565b6000826119f257634e487b7160e01b81526012600452602481fd5b500490565b6000816000190483118215151615611a1157611a11611a68565b500290565b600082821015611a2857611a28611a68565b500390565b600281046001821680611a4157607f821691505b60208210811415611a6257634e487b7160e01b600052602260045260246000fd5b50919050565b634e487b7160e01b600052601160045260246000fd5b6001600160a01b0381168114610d6f57600080fdfea2646970667358221220865dedb21cdc7facd874b6b762ba4aeef70c03c8db6773bab33b7d6505f6de5964736f6c63430008000033",
  "linkReferences": {},
  "deployedLinkReferences": {}
}